:100EB70012102C120BC77F057E00120FBC120FA653
:100EC700120F8D7F647E00120003751B0F120E4EEA
:0D0ED700120DA6E530B401F8120E0680F3EE
:10000300E4FDFCC3ED9FEC9E5015E4FBFA0BBB0033
:0F001300010ABA07F8BBD0F50DBD00010C80E45F
:0100220022BB
:09100800D2A1C2A2C2A4D2A3220B
:09101100C2A1D2A2D2A4C2A32202
:09101A00D2A1C2A2D2A4C2A322F9
:09102300C2A1D2A2C2A4D2A322F0
:09102C00D2A1D2A2D2A4D2A322C7
:0A0EE400042A0000000002280000AC
:100F5900D291000000000000000000000000000025
:0A0F690000000000000000C2912209
:100CDF00E4FF3090FDD28C309009EFD39464500331
:100CEF000F80F4C28CEFD394645039AF8CEFFEAD0C
:100CFF008A7C00E42DF529EC3EF528FCAD29E412A1
:100D0F0009D97B9A7A9979D9783F12082EE4FBFAA0
:100D1F0079487843120937120A128F2D8E2C8D2B9A
:100D2F008C2A800AE4752D55F52CF52BF52AE4F560
:030D3F008CF58AA6
:010D4200228E
:100EEE00011800011B0F040800000000040C000094
:0E0EFE000000041000000000041400000000BA
:100ADF00751B05E4F519F51AD3E51A94A0E51994D9
:100AEF000F40F5120F59120CDF852D0F852C0E8537
:100AFF002B0D852A0C751B18E4F519F51AD3E51A79
:100B0F0094A0E519940F40F5120F59120CDF852DA3
:100B1F0017852C16852B15852A14751B0FE4F519CF
:100B2F00F51AD3E51A94A0E519940F40F5120F5951
:100B3F00120CDF852D0B852C0A852B09852A08E4DD
:100B4F007F1EFEFDFCAB0FAA0EA90DA80CC3120A47
:100B5F00CE4013E47F1EFEFDFCAB17AA16A915A805
:100B6F0014120ACE5013121011E4F519F51AD3E529
:100B7F001A94B8E519940B40F5AF17AE16AD15AC36
:100B8F0014AB0FAA0EA90DA80CC3120ACE50151242
:100B9F001023E4F519F51AD3E51A94B8E519940B57
:100BAF00501580F312101AE4F519F51AD3E51A94BB
:080BBF00B8E519940B40F52282
:100E8400E518D3951B5004D2928002C292E518C390
:100E940094C84003E4F518E532D3952E5006D2A049
:100EA400D2A58004C2A0C2A5E532C394644003E481
:030EB400F53222F2
:03002B00020F734E
:100F7300C0E0C0D0C2CF051AE51A700205190518E2
:0A0F83000532120E84D0D0D0E03207
:100F8D0075CBFF75CA9CE4F5C8F5C9F58CF58A7566
:090F9D00A8A0D2CAD2A9D2AF2249
:100E0600C3E51A9496E5199400403CE4F519F51AE1
:100E1600120F59120CDFE47F50FEFDFCAB2DAA2CFD
:100E2600A92BA82AC3120ACE500612102C020ADFDA
:100E3600E47F50FEFDFCAB2DAA2CA92BA82AC312D9
:080E46000ACE4003121008223D
:030F0C00012E00B3
:100FA600438920758DFD758BFDD28ED29CC29FD252
:060FB6009ED2AFD2AC2276
:100DA60085992FC298E52F249FB40A005051900DC3
:100DB600C275F003A4C58325F0C58373020DE00256
:100DC6000DE3020DE6020DE9020DEC020DF2020D35
:100DD600F6020DFA020DFE020E02021011021008B2
:100DE60002101A021023E4F53002102C752E1E2272
:100DF600752E3222752E4622752E632275300122FB
:0B0FF200D294D29300C29300C294225C
:0B0FFD00C294C29300D294D293002251
:070F1000AD07120FF27F781C
:100F1700E4FEEF30E704D2938002C293D29400C27A
:100F27009400EF25E0FF000EBE08E7D293D29400AD
:030F3700C2940061
:010F3A002294
:100FD200120F10E4FF120F17AF05120F17020FFDC9
:100FE200120F107F40120F17AF05120F17020FFDDD
:100BC7007FAE120FD27F20120FD27F10120FD27F6B
:100BD700B0120FD27FC8120FD2E4FF120FD27F10CC
:100BE700120FD27F40120FD27F81120FD27FFF12D6
:100BF7000FD27FA1120FD27FA6120FD27FA8120F9A
:100C0700D27F3F120FD27FA4120FD27FD3120FD2FF
:100C1700E4FF120FD27FD5120FD27FF0120FD27FCF
:100C2700D9120FD27F22120FD27FDA120FD27F1280
:100C3700120FD27FDB120FD27F20120FD27F8D12BD
:0C0C47000FD27F14120FD27FAF020FD229
:100F3B008D27EF24B0FF120FD2E527540FFF120FAE
:0E0F4B00D2E52754F0C4540F4410FF020FD219
:040D43008F1C8B1E58
:100D4700E4F523F524E51F5407700BE51F13131370
:100D5700541FF526800AE51F131313541F04F526A5
:100D67008D26E526C3951F5035AD1CAF26120F3BC8
:100D7700851C25E525C3951E5020AB20AA21A92255
:100D87000524E524AE237002052314F5828E831211
:0E0D97000A93FF120FE2052580D9052680C4BD
:010DA500222B
:10002E0000000000000000000000000000000000C2
:10003E0000000000000000000000000000000000B2
:10004E0000000000000000000000000000000000A2
:10005E000000000000000000000000000000000092
:10006E0000000000000080400000000000000000C2
:10007E000000000000000000000000000000000072
:10008E000000000000000000000000000000000062
:10009E000000000000000000000000000000000052
:1000AE000000000000000000000000000000000042
:1000BE000000000000000000000000000000000032
:1000CE00000000000000000000000000FE00010122
:1000DE000100020800000000000000000000000007
:1000EE0000000000C0FFFFFCFEFEFEFCFC7F0000D7
:1000FE0000000000000000000000000000000000F2
:10010E0000000000000000000000000000000000E1
:10011E0000000000000000000000000000000000D1
:10012E0000000000000000000000000000000000C1
:10013E0000000000000000000000000000000000B1
:10014E0000000000000000000000000001030C1879
:10015E00307060E0E0C0C0C4F8F8F8F8B8F8F858AD
:10016E00E8FCFCFFFFFFFFFF3F1F0F07030000002F
:10017E000000000000000000000000000000000071
:10018E000000000000000000000000000000000061
:10019E000000000000000000000000000000000051
:1001AE000000000000000000000000000000000041
:1001BE000000000000000000000000000000000031
:1001CE000000000000000000000000000000E0F051
:1001DE00FCFEFEFFFFFFFF3F171F0F0F0F0E0F0F4F
:1001EE000F0F0F1F010101030307060C1870C0004B
:1001FE0000000000000000000000000000000000F1
:10020E0000000000000000000000000000000000E0
:10021E0000000000000000000000000000000000D0
:10022E0000000000000000000000000000000000C0
:10023E0000000000000000000000000000000000B0
:10024E00000000000000000000000000007FBF1F43
:10025E00FFFF3F1FDF7F01000000000000000000D5
:10026E00000000000000000E2000004040203F0073
:10027E000000000000000000000000000000000070
:10028E000000000000000000000000000000000060
:10029E000000000000000000000000000000000050
:1002AE000000000000000000000000000000000040
:1002BE000000000000000000000000000000000030
:1002CE000000000000000000000000000000000020
:1002DE00010101010000000000000000000000000C
:1002EE000000000000000000000000000000000000
:1002FE0000000000000000000000000000000000F0
:10030E0000000000000000000000000000000000DF
:10031E0000000000000000000000000000000000CF
:10032E0000000000000000000000000000000000BF
:10033E003E1E00202020201E1E000000000010087F
:10034E000E1800000000001E0E00000010080C0425
:10035E000606060604000000060E00000000000659
:10036E000E00000002060000000000020600000061
:10037E00000000020000000000000200000000006B
:10038E00000002000000000080000000400080C05D
:10039E00000000000000000000000000000000004F
:1003AE00000000000000000000000000000000003F
:1003BE00000000000000000000000000000000002F
:1003CE00000000000000000000000000000000001F
:1003DE00000000000200000000020000000000000B
:1003EE0002000000000200020202020000000003F0
:1003FE0002000000000002020000030200000000E4
:10040E0000010300000000010203020202000303C8
:10041E0000000000000000000000000000000000CE
:10042E0000000000000000000000000000000000BE
:10043E0000000000000000000000000000000000AE
:10044E00000000000000000000000000000000009E
:10045E00000000000000000000000000000000008E
:10046E00000000000000000000000000000000007E
:10047E00000000000000000000000000000000006E
:10048E00000000000000000000000000000000005E
:10049E00000000000000000000000000000000004E
:1004AE00000000000000000000000000000000003E
:1004BE00000000000000000000000000000000002E
:1004CE00000000000000000000000000000000001E
:1004DE00000000000000000000000000000000000E
:1004EE0000000000000000000000000000000000FE
:1004FE0000000000000000000000000000000000EE
:10050E0000000000000000000000000000000000DD
:10051E0000000000000000000000000000000000CD
:10052E000000000000040E1E3E7C7870300080C07B
:10053E00E0F8FC3F3F3F3B383838383838383838E9
:10054E0038383838383838380000000000000000DD
:10055E00000080C0E0F0FC7E1F1F3F7CF8F0E0C082
:10056E008000000000F0F0F02000000000FFFFFF10
:10057E00FF0000000000000000000000FCFEFEFE78
:10058E000E0E0E0E0E0E0E0E0E0E0E0E0E0E0E0E7D
:10059E000E0E0E3EFEFEFE000000000000000000EB
:1005AE0000000000181C3C78F0F0E04002070F0736
:1005BE00E3FFFEFE0E060606367EF6E6C6C6060607
:1005CE000606FEFEFEFE0000000000000000383CA5
:1005DE003EFFFFF7F37170707070707070F1F3F78B
:1005EE000F0F0E0000FFFFFF0000000000FFFFFFD7
:1005FE00FF00000000000080808080808F8F8F8F32
:10060E008E8E8E8E8E8E8E8E8E8E8E8E8E8E8E8EFC
:10061E008E8E8E8F8F8F8F80808080800000000066
:10062E0000000000000000C0F0F0E0000E0E0EFE14
:10063E00FFFFFF0E0E0E0E4EEEEECECF8F0E0E0EF7
:10064E000E0EFFFFFF1F0E0E0E000000000000003A
:10065E0000FFFFFF000000E0E0E0E0E0E0FFFF3F12
:10066E000000000000FFFFFF8000000000FFFFFF02
:10067E00FF000000000000030303030303E3FFFF7A
:10068E00FFEFE3E3E3E3E3E3E3E3E3E3E3E3E3E304
:10069E00E3E3E3E3E3E3E3430303030301000000C7
:1006AE000000000000E0FCFFFF1F01000000001F23
:1006BE001F1F1C1C1C1C1C1C1C9C9D9F9D9C9C9CE1
:1006CE009CFCFFFF7F1C1C1C0000000000000000B3
:1006DE00007FFFFFF0C0C0C0C1C0C0C0C0C0E0F806
:1006EE00FF7F1E000001C1C1C0C0C0C0C0FFFFFF20
:1006FE007F0000000000000000000000000000006D
:10070E000000000000C0C0C0C0C0C0C0C0C0C0C09B
:10071E00C0C0E0FFFF7F3F000000000000000000AF
:10072E0000000000000303030000000000000000B2
:10073E000000000000000000000303030303030396
:10074E000303010100000000000000000000000093
:10075E00000000010101010101010101010101017E
:10076E000000000000000103030303030101010068
:10077E00000000000000000000000000000000006B
:10078E000000000000000103030303010101010149
:10079E000101010100000000000000000000000047
:1007AE00000000000000000000000000000000003B
:1007BE00000000000000000000000000000000002B
:1007CE00000000000000000000000000000000001B
:1007DE00000000000000000000000000000000000B
:1007EE0000000000000000000000000000000000FB
:1007FE0000000000000000000000000000000000EB
:10080E0000000000000000000000000000000000DA
:10081E0000000000000000000000000000000000CA
:100FBC00EF1FAA0670011E4A600BE4FDEDC3947B83
:050FCC0050EE0D80F75E
:010FD10022FD
:100E4E00751F087520FF75210075222E7B80E4FD2D
:100E5E00FF120D437F967E00120FBC751F08752082
:100E6E00FF75210475222E7B80E4FDFF120D437F5A
:060E7E00967E00020FBC8D
:10082E00EC4D6011E8497017ED33EC3304600DE4C4
:10083E00FCFFFEFD22E933E8330470F8020A7E1253
:10084E000A4958046009E4CC248150062850090254
:10085E000A88284003020A85C0E0EB4A7044B9803A
:10086E0006D0E0FB020A74EF4E701CBD8008EBFF51
:10087E00EAFEE9FD80EBE98DF0A4FEE5F002091732
:10088E00E9CDF9EAFEEBFFEF89F0A4FCE5F0CE89A5
:10089E00F0A42EFFE435F0CD89F0A42DFEE435F062
:1008AE008067EF4E7005BD80D780C3EF8BF0A4AC90
:1008BE00F0EE8BF0A42CFCE435F0F8EF8AF0A42CCB
:1008CE00E5F038FCE433CB8DF0A42CFCE5F03BF8DE
:1008DE00EE8AF0A42CFCE5F038F8E433CF89F0A4CE
:1008EE002CFCE5F038CF3400CE89F0A42FFFE5F0D4
:1008FE003EFEE433C98DF0A42EFEE5F039CD8AF02C
:10090E00A42FFFE5F03EFEE43DFD33D0E0FB5007A3
:10091E000BBB000F020A88EC2CFCEF33FFEE33FE0C
:06092E00ED33FD020A603A
:10093400020A88EC5D046005E859047003020A7E2B
:10094400120A49580460F6EC4860F2EC7004FDFEAB
:10095400FF22C860DB2481C85009C3986002500696
:10096400020A859850CAF582E9294B4A7005AB8280
:10097400020A7475F0007C1A7880C3EF9BEE9AED3E
:1009840099400DC3EF9BFFEE9AFEED99FDE842F00E
:10099400DC23ACF0D0E0FFD0E0FED0E0FDAB822061
:1009A400E7101BEB60BAEC2CFCEF33FFEE33FEEDEB
:1009B40033FD020A60E803F830E705C0F075F00083
:1009C400EF2FFFEE33FEED33FD40B830E7C280AACF
:1009D40075F020800E75F010800575F0087D007E9E
:1009E400007F003392D530D503120AC0EC33401097
:1009F400EF33FFEE33FEED33FDEC33FCD5F0ED22A7
:0E0A0400E5F0247EA2D513CC92E7CDCEFF22E2
:100A1200EDD2E7CD33EC3392D524814006E4FFFEDC
:100A2200FDFC22FCE4CFCECDCC24E0501174FF803B
:100A3200EDC3CC13CCCD13CDCE13CECF13CF0470D8
:070A4200F030D5DE020AC00E
:100A4900E9D2E7C933E833F892D5EDD2E7CD33ECF3
:070A590033FC5002B2D5226C
:100A6000EC30E7100FBF000C0EBE00080DBD0004F7
:100A70000BEB6014A2D5EB13FCED92E7FD2274FFA3
:100A8000FCFDFEFF22E480F8A2D574FF13FC7D80FC
:030A9000E480EF10
:03000000020C539C
:0C0C5300787FE4F6D8FD758132020C9A1F
:100A9300BB010CE58229F582E5833AF583E0225018
:100AA30006E92582F8E622BBFE06E92582F8E22262
:0D0AB300E58229F582E5833AF583E493227C
:0E0AC000C3E49FFFE49EFEE49DFDE49CFC2247
:100ACE00EB9FF5F0EA9E42F0E99D42F0E89C45F07E
:010ADE0022F5
:100C5F00020EB7E493A3F8E493A34003F68001F2E6
:100C6F0008DFF48029E493A3F85407240CC8C33396
:100C7F00C4540F4420C8834004F456800146F6DF65
:100C8F00E4800B0102040810204080900EE4E47E03
:100C9F00019360BCA3FF543F30E509541FFEE4935A
:100CAF00A360010ECF54C025E060A840B8E493A321
:100CBF00FAE493A3F8E493A3C8C582C8CAC583CA4C
:100CCF00F0A3C8C582C8CAC583CADFE9DEE780BE04
:010F0F0000E1
:00000001FF
